:100000000C9462000C948A000C948A000C948A0070
:100010000C948A000C948A000C948A000C948A0038
:100020000C948A000C948A000C948A000C948A0028
:100030000C948A000C948A000C948A000C948A0018
:100040000C94C0020C948A000C9430030C940A03A4
:100050000C948A000C948A000C948A000C948A00F8
:100060000C948A000C948A000000000023002600F3
:10007000290000000000240027002A0000000000E2
:10008000250028002B0004040404040404040202D4
:100090000202020203030303030301020408102007
:1000A0004080010204081020010204081020000012
:1000B0000008000201000003040700000000000027
:1000C0000000D60411241FBECFEFD8E0DEBFCDBFA5
:1000D00011E0A0E0B1E0EEE0FDE002C005900D927D
:1000E000AE31B107D9F721E0AEE1B1E001C01D9218
:1000F000A83CB207E1F710E0C2E6D0E004C02197C7
:10010000FE010E947A06C136D107C9F70E94A703F3
:100110000C9485060C94000090E0FC01E255FF4F22
:100120002491FC01E656FF4F3491FC01EA57FF4F42
:10013000E491EE2309F43CC0222339F1233091F0FD
:1001400038F42130A9F0223001F584B58F7D12C03A
:10015000273091F02830A1F02430B9F4809180004C
:100160008F7D03C0809180008F77809380000DC0C9
:1001700084B58F7784BD09C08091B0008F7703C0AC
:100180008091B0008F7D8093B000F0E0EE0FFF1FF4
:10019000E458FF4FA591B4919FB7F894611104C042
:1001A0008C913095382302C0EC913E2B3C939FBF3D
:1001B0000895CF93DF9390E0FC01E656FF4F249122
:1001C000FC01EA57FF4F8491882361F190E0880F8A
:1001D000991FFC01EE58FF4FC591D491FC01E458E2
:1001E000FF4FA591B491611109C09FB7F894888120
:1001F000209582238883EC912E230BC0623061F41A
:100200009FB7F8948881322F309583238883EC91AF
:100210002E2B2C939FBF06C08FB7F894E8812E2B0E
:1002200028838FBFDF91CF9108953FB7F8948091D5
:10023000270190912801A0912901B0912A0126B5AA
:10024000A89B05C02F3F19F00196A11DB11D3FBF0E
:10025000BA2FA92F982F8827820F911DA11DB11D9C
:10026000BC01CD0142E0660F771F881F991F4A9598
:10027000D1F70895CF92DF92EF92FF920F931F93E1
:10028000CF93DF936C017A018B01C0E0D0E0CE15F3
:10029000DF0581F0D8016D918D01D601ED91FC91C2
:1002A0000190F081E02DC6010995892B11F021966E
:1002B000EECF7E01C701DF91CF911F910F91FF908B
:1002C000EF90DF90CF900895089580E090E008953A
:1002D000FC01538D448D252F30E0842F90E0821B4C
:1002E000930B541710F0CF96089501970895FC01D1
:1002F000918D828D981761F0828DDF01A80FB11D5D
:100300005D968C91928D9F5F9F73928F90E0089580
:100310008FEF9FEF0895FC01918D828D981731F03A
:10032000828DE80FF11D858D90E008958FEF9FEF8E
:100330000895FC01918D228D892F90E0805C9F4F64
:10034000821B91098F73992708958BE291E00E9497
:10035000990121E0892B09F420E0822F0895FC0106
:10036000848DDF01A80FB11DA35ABF4F2C91848D3E
:1003700090E001968F739927848FA689B7892C9373
:10038000A089B1898C91837080648C93938D848DC6
:10039000981306C00288F389E02D80818F7D8083C9
:1003A0000895EF92FF920F931F93CF93DF93EC0189
:1003B00081E0888F9B8D8C8D981305C0E889F98921
:1003C000808185FD26C0F62E0B8D10E00F5F1F4F3C
:1003D0000F731127E02E8C8DE8120CC00FB607FCAE
:1003E000FACFE889F989808185FFF5CFCE010E9497
:1003F000AF01F1CF8B8DFE01E80FF11DE35AFF4FE6
:10040000F0829FB7F8940B8FEA89FB898081806224
:100410000AC09FB7F894EE89FF896083E889F9895B
:1004200080818370806480839FBF81E090E0DF9152
:10043000CF911F910F91FF90EF900895CF93DF938D
:10044000EC01888D8823C9F0EA89FB89808185FDCC
:1004500005C0A889B9898C9186FD0FC00FB607FC2D
:10046000F5CF808185FFF2CFA889B9898C9185FF6E
:10047000EDCFCE010E94AF01E7CFDF91CF9108957C
:1004800080E090E0892B29F00E94A50181110C9455
:1004900000000895009769F0FC0101900020E9F741
:1004A0003197AF01481B590BBC018BE291E00C94D2
:1004B0003A0180E090E008958F929F92AF92BF92B0
:1004C0000F931F93CF93DF93CDB7DEB7A1970FB6EE
:1004D000F894DEBF0FBECDBF19A2423008F44AE047
:1004E0008E010F5D1F4F842E912CA12CB12CA501E4
:1004F00094010E943906E62FB901CA010150110981
:10050000EA3014F4E05D01C0E95CD801EC93232BE0
:10051000242B252B61F7C8010E944A02A1960FB631
:10052000F894DEBF0FBECDBFDF91CF911F910F9129
:10053000BF90AF909F908F900895CF92DF92EF92EF
:10054000FF92CF93DF936B017C016DE28BE291E030
:100550000E94D101EC0166277727CB016C197D0938
:100560008E099F094AE00E945C028C0F9D1FDF915B
:10057000CF91FF90EF90DF90CF9008950E9480067A
:100580001F920F920FB60F9211242F933F938F93C8
:100590009F93AF93BF938091230190912401A091E9
:1005A0002501B09126013091220123E0230F2D3740
:1005B00020F40196A11DB11D05C026E8230F029667
:1005C000A11DB11D2093220180932301909324014A
:1005D000A0932501B09326018091270190912801D5
:1005E000A0912901B0912A010196A11DB11D80930E
:1005F000270190932801A0932901B0932A01BF916C
:10060000AF919F918F913F912F910F900FBE0F90BF
:100610001F9018951F920F920FB60F9211242F93CF
:100620003F934F935F936F937F938F939F93AF937A
:10063000BF93EF93FF938BE291E00E94AF01FF9194
:10064000EF91BF91AF919F918F917F916F915F914A
:100650004F913F912F910F900FBE0F901F901895C3
:100660001F920F920FB60F9211242F938F939F9387
:10067000EF93FF93E0913B01F0913C018081E09189
:100680004101F091420182FD12C0908180914401AC
:100690008F5F8F7320914501821751F0E0914401E3
:1006A000F0E0E55DFE4F958F8093440101C08081AD
:1006B000FF91EF919F918F912F910F900FBE0F900F
:1006C0001F901895CF92DF92EF92FF920F931F9396
:1006D000E82FF92F05C0015011092109310961F1F5
:1006E000908196239417B9F305C00150110921098F
:1006F000310911F1908196239413F7CFC12CD12C9D
:10070000E12CF12C0AC08FEFC81AD80AE80AF80ABF
:100710000C151D052E053F0579F080818623841771
:1007200091F36C2D7D2D8E2D9F2D1F910F91FF909C
:10073000EF90DF90CF90089560E070E080E090E06F
:100740001F910F91FF90EF90DF90CF9008957894D4
:1007500084B5826084BD84B5816084BD85B58260C6
:1007600085BD85B5816085BD80916E008160809377
:100770006E001092810080918100826080938100E0
:1007800080918100816080938100809180008160F0
:10079000809380008091B10084608093B10080914B
:1007A000B00081608093B00080917A008460809373
:1007B0007A0080917A00826080937A0080917A003A
:1007C000816080937A0080917A00806880937A00BB
:1007D0001092C100E0913B01F0913C0182E08083E6
:1007E000E0913701F09138011082E0913901F091E8
:1007F0003A018FEC808310924301E0913F01F09128
:10080000400186E08083E0913D01F0913E018081CE
:1008100080618083E0913D01F0913E01808188609C
:100820008083E0913D01F0913E018081806880836A
:10083000E0913D01F0913E0180818F7D808361E0F8
:100840008BE00E94D90060E08CE00E94D9004FE06C
:10085000242E312CC3E2D0E054E9452E512C612CDA
:10086000712C60E08BE00E948C00C1010197F1F7D0
:1008700061E08BE00E948C00CE010197F1F760E00F
:100880008BE00E948C0060E08CE00E94D900E6EAD8
:10089000F0E06491E2E9F0E08491E82FF0E0EE0FFF
:1008A000FF1FE859FF4F8591949100E412E42FE077
:1008B00030E0462F0E9462036115710581059105A4
:1008C00051F0DC01CB010196A11DB11D6C017D0130
:1008D000FFE0FF2203C0C12CD12C7601C701B60175
:1008E00095958795779567950E94AD052DEC3CEC25
:1008F00048EE51E40E9403050E94750560931E01B5
:1009000070931F018093200190932101C701B601CC
:10091000A30192010E945B06CA01B9014AE00E944C
:100920005C0282E191E00E944A0260911E01709196
:100930001F01809120019091210197FF03C00E9427
:100940009D0203C04AE00E945C0287E191E00E94A0
:100950004A028AE191E00E944A020E9415014B017D
:100960005C018AEFC82ED12CE12CF12C0E941501DC
:10097000DC01CB0188199909AA09BB09883E93407B
:10098000A105B10598F321E0C21AD108E108F108E8
:1009900088EE880E83E0981EA11CB11CC114D104FE
:1009A000E104F10419F70E9440025BCFEBE2F1E0B1
:1009B0001382128288EE93E0A0E0B0E084839583F6
:1009C000A683B78384E091E09183808385EC90E0F7
:1009D0009587848784EC90E09787868780EC90E009
:1009E000918B808B81EC90E0938B828B82EC90E0FA
:1009F000958B848B86EC90E0978B868B118E128E74
:100A0000138E148E08950E9417050C94FF050E9402
:100A1000F80558F00E94F10540F029F45F3F29F0F5
:100A20000C94E80551110C9433060C94EE050E94C9
:100A3000100668F39923B1F3552391F3951B550BD9
:100A4000BB27AA2762177307840738F09F5F5F4FA1
:100A5000220F331F441FAA1FA9F335D00E2E3AF0E0
:100A6000E0E832D091505040E695001CCAF72BD0F8
:100A7000FE2F29D0660F771F881FBB1F2617370749
:100A80004807AB07B0E809F0BB0B802DBF01FF277B
:100A900093585F4F3AF09E3F510578F00C94E8056B
:100AA0000C9433065F3FE4F3983ED4F38695779534
:100AB0006795B795F7959F5FC9F7880F911D969534
:100AC000879597F90895E1E0660F771F881FBB1F90
:100AD000621773078407BA0720F0621B730B840B3D
:100AE000BA0BEE1F88F7E09508950E947C05689484
:100AF000B1110C94330608950E94180688F09F5790
:100B000098F0B92F9927B751B0F0E1F0660F771F31
:100B1000881F991F1AF0BA95C9F714C0B13091F027
:100B20000E943206B1E008950C943206672F782FA8
:100B30008827B85F39F0B93FCCF3869577956795EC
:100B4000B395D9F73EF490958095709561957F4F58
:100B50008F4F9F4F0895E89409C097FB3EF49095FE
:100B60008095709561957F4F8F4F9F4F9923A9F086
:100B7000F92F96E9BB279395F69587957795679515
:100B8000B795F111F8CFFAF4BB0F11F460FF1BC059
:100B90006F5F7F4F8F4F9F4F16C0882311F096E9EC
:100BA00011C0772321F09EE8872F762F05C066239A
:100BB00071F096E8862F70E060E02AF09A95660F53
:100BC000771F881FDAF7880F9695879597F908950C
:100BD00097F99F6780E870E060E008959FEF80ECF0
:100BE000089500240A941616170618060906089593
:100BF00000240A9412161306140605060895092EF9
:100C00000394000C11F4882352F0BB0F40F4BF2B67
:100C100011F460FF04C06F5F7F4F8F4F9F4F0895A7
:100C200057FD9058440F551F59F05F3F71F047959D
:100C3000880F97FB991F61F09F3F79F08795089582
:100C4000121613061406551FF2CF4695F1DF08C0A1
:100C5000161617061806991FF1CF869571056105BE
:100C600008940895E894BB2766277727CB0197F966
:100C70000895A1E21A2EAA1BBB1BFD010DC0AA1FDD
:100C8000BB1FEE1FFF1FA217B307E407F50720F0F5
:100C9000A21BB30BE40BF50B661F771F881F991F70
:100CA0001A9469F760957095809590959B01AC01B9
:100CB000BD01CF010895052E97FB1EF400940E94FC
:100CC000720657FD07D00E94390607FC03D04EF488
:100CD0000C94720650954095309521953F4F4F4F9B
:100CE0005F4F089590958095709561957F4F8F4FD8
:100CF0009F4F0895EE0FFF1F0590F491E02D09948A
:0E0D000081E090E0F8940C948506F894FFCF03
:100D0E0000000000D1013A0168011E02990177012D
:0E0D1E008B01696E2C2000636D000D0A000031
:00000001FF
